{
  "_format": "hh-sol-artifact-1",
  "contractName": "VoteElection",
  "sourceName": "contracts/Vote.sol",
  "abi": [
    {
      "inputs": [],
      "stateMutability": "nonpayable",
      "type": "constructor"
    },
    {
      "anonymous": false,
      "inputs": [
        {
          "indexed": true,
          "internalType": "uint256",
          "name": "electionID",
          "type": "uint256"
        },
        {
          "indexed": false,
          "internalType": "string",
          "name": "name",
          "type": "string"
        },
        {
          "indexed": false,
          "internalType": "uint256",
          "name": "endTime",
          "type": "uint256"
        }
      ],
      "name": "ElectionCreated",
      "type": "event"
    },
    {
      "anonymous": false,
      "inputs": [
        {
          "indexed": true,
          "internalType": "uint256",
          "name": "electionID",
          "type": "uint256"
        }
      ],
      "name": "ElectionDeleted",
      "type": "event"
    },
    {
      "anonymous": false,
      "inputs": [
        {
          "indexed": true,
          "internalType": "uint256",
          "name": "electionID",
          "type": "uint256"
        },
        {
          "indexed": true,
          "internalType": "address",
          "name": "voter",
          "type": "address"
        },
        {
          "indexed": false,
          "internalType": "string",
          "name": "candidate",
          "type": "string"
        }
      ],
      "name": "VoteCasted",
      "type": "event"
    },
    {
      "inputs": [
        {
          "internalType": "string",
          "name": "name",
          "type": "string"
        },
        {
          "internalType": "uint256",
          "name": "durationInMinutes",
          "type": "uint256"
        },
        {
          "internalType": "string[]",
          "name": "candidates",
          "type": "string[]"
        },
        {
          "internalType": "string[]",
          "name": "imageUrl",
          "type": "string[]"
        },
        {
          "internalType": "string",
          "name": "imageUrlElection",
          "type": "string"
        },
        {
          "internalType": "address[]",
          "name": "allowedVoters",
          "type": "address[]"
        },
        {
          "internalType": "string",
          "name": "_describe",
          "type": "string"
        }
      ],
      "name": "createElection",
      "outputs": [],
      "stateMutability": "nonpayable",
      "type": "function"
    },
    {
      "inputs": [
        {
          "internalType": "uint256",
          "name": "electionId",
          "type": "uint256"
        }
      ],
      "name": "deleteElection",
      "outputs": [],
      "stateMutability": "nonpayable",
      "type": "function"
    },
    {
      "inputs": [
        {
          "internalType": "uint256",
          "name": "electionId",
          "type": "uint256"
        }
      ],
      "name": "detailElection",
      "outputs": [
        {
          "components": [
            {
              "internalType": "string",
              "name": "name",
              "type": "string"
            },
            {
              "internalType": "string",
              "name": "describe",
              "type": "string"
            },
            {
              "internalType": "uint256",
              "name": "endTime",
              "type": "uint256"
            },
            {
              "internalType": "bool",
              "name": "hasVote",
              "type": "bool"
            },
            {
              "internalType": "string",
              "name": "winnerName",
              "type": "string"
            },
            {
              "internalType": "uint256",
              "name": "highestVotes",
              "type": "uint256"
            },
            {
              "internalType": "address[]",
              "name": "allowedVoters",
              "type": "address[]"
            },
            {
              "internalType": "string",
              "name": "imageURLElection",
              "type": "string"
            }
          ],
          "internalType": "struct VoteElection.DetailElection",
          "name": "",
          "type": "tuple"
        }
      ],
      "stateMutability": "view",
      "type": "function"
    },
    {
      "inputs": [],
      "name": "electionID",
      "outputs": [
        {
          "internalType": "uint256",
          "name": "",
          "type": "uint256"
        }
      ],
      "stateMutability": "view",
      "type": "function"
    },
    {
      "inputs": [
        {
          "internalType": "uint256",
          "name": "",
          "type": "uint256"
        }
      ],
      "name": "electionIDs",
      "outputs": [
        {
          "internalType": "uint256",
          "name": "",
          "type": "uint256"
        }
      ],
      "stateMutability": "view",
      "type": "function"
    },
    {
      "inputs": [
        {
          "internalType": "uint256",
          "name": "",
          "type": "uint256"
        }
      ],
      "name": "elections",
      "outputs": [
        {
          "internalType": "string",
          "name": "name",
          "type": "string"
        },
        {
          "internalType": "uint256",
          "name": "endTime",
          "type": "uint256"
        },
        {
          "internalType": "string",
          "name": "imageUrlElection",
          "type": "string"
        },
        {
          "internalType": "string",
          "name": "describe",
          "type": "string"
        },
        {
          "internalType": "bool",
          "name": "exists",
          "type": "bool"
        },
        {
          "internalType": "string",
          "name": "winner",
          "type": "string"
        },
        {
          "internalType": "uint256",
          "name": "highestVotes",
          "type": "uint256"
        }
      ],
      "stateMutability": "view",
      "type": "function"
    },
    {
      "inputs": [],
      "name": "getAllElections",
      "outputs": [
        {
          "components": [
            {
              "internalType": "uint256",
              "name": "idElection",
              "type": "uint256"
            },
            {
              "internalType": "string",
              "name": "name",
              "type": "string"
            },
            {
              "internalType": "string",
              "name": "imageUrlElection",
              "type": "string"
            },
            {
              "internalType": "string",
              "name": "describe",
              "type": "string"
            },
            {
              "internalType": "uint256",
              "name": "endTime",
              "type": "uint256"
            },
            {
              "internalType": "string[]",
              "name": "candidates",
              "type": "string[]"
            }
          ],
          "internalType": "struct VoteElection.DataElection[]",
          "name": "",
          "type": "tuple[]"
        }
      ],
      "stateMutability": "view",
      "type": "function"
    },
    {
      "inputs": [
        {
          "internalType": "uint256",
          "name": "electionId",
          "type": "uint256"
        }
      ],
      "name": "getCandidateVotes",
      "outputs": [
        {
          "components": [
            {
              "internalType": "string",
              "name": "name",
              "type": "string"
            },
            {
              "internalType": "uint256",
              "name": "votes",
              "type": "uint256"
            },
            {
              "internalType": "string",
              "name": "imageUrl",
              "type": "string"
            }
          ],
          "internalType": "struct VoteElection.CandidateVotes[]",
          "name": "",
          "type": "tuple[]"
        }
      ],
      "stateMutability": "view",
      "type": "function"
    },
    {
      "inputs": [
        {
          "internalType": "uint256",
          "name": "electionId",
          "type": "uint256"
        }
      ],
      "name": "getElectionWinner",
      "outputs": [
        {
          "internalType": "string",
          "name": "",
          "type": "string"
        },
        {
          "internalType": "uint256",
          "name": "",
          "type": "uint256"
        }
      ],
      "stateMutability": "view",
      "type": "function"
    },
    {
      "inputs": [],
      "name": "owner",
      "outputs": [
        {
          "internalType": "address",
          "name": "",
          "type": "address"
        }
      ],
      "stateMutability": "view",
      "type": "function"
    },
    {
      "inputs": [
        {
          "internalType": "uint256",
          "name": "_electionID",
          "type": "uint256"
        }
      ],
      "name": "registerVote",
      "outputs": [],
      "stateMutability": "nonpayable",
      "type": "function"
    },
    {
      "inputs": [
        {
          "internalType": "uint256",
          "name": "_electionID",
          "type": "uint256"
        },
        {
          "internalType": "address[]",
          "name": "newAllowedVoters",
          "type": "address[]"
        }
      ],
      "name": "setAllowedVoters",
      "outputs": [],
      "stateMutability": "nonpayable",
      "type": "function"
    },
    {
      "inputs": [
        {
          "internalType": "uint256",
          "name": "electionId",
          "type": "uint256"
        },
        {
          "internalType": "string[]",
          "name": "newCandidates",
          "type": "string[]"
        },
        {
          "internalType": "string[]",
          "name": "newImageUrl",
          "type": "string[]"
        }
      ],
      "name": "setCandidates",
      "outputs": [],
      "stateMutability": "nonpayable",
      "type": "function"
    },
    {
      "inputs": [
        {
          "internalType": "address",
          "name": "newOwner",
          "type": "address"
        }
      ],
      "name": "transferOwner",
      "outputs": [],
      "stateMutability": "nonpayable",
      "type": "function"
    },
    {
      "inputs": [
        {
          "internalType": "uint256",
          "name": "electionId",
          "type": "uint256"
        },
        {
          "internalType": "string",
          "name": "candidate",
          "type": "string"
        }
      ],
      "name": "vote",
      "outputs": [],
      "stateMutability": "nonpayable",
      "type": "function"
    }
  ],
  "bytecode": "0x6080604052348015600f57600080fd5b50336000806101000a81548173ffffffffffffffffffffffffffffffffffffffff021916908373ffffffffffffffffffffffffffffffffffffffff16021790555061412e8061005f6000396000f3fe608060405234801561001057600080fd5b50600436106100f55760003560e01c80638da5cb5b11610097578063e0277c9911610066578063e0277c9914610260578063e62c6ac514610290578063e6ab51ad146102c1578063f8e78e9a146102f1576100f5565b80638da5cb5b146101ee578063a67ca0ac1461020c578063c5a1902a14610228578063c94435bd14610244576100f5565b80635e6fef01116100d35780635e6fef011461014e578063740c47d4146101845780637fd5f268146101a0578063866163c0146101be576100f5565b806324108475146100fa578063464d4a92146101165780634fb2e45d14610132575b600080fd5b610114600480360381019061010f91906129c2565b61030f565b005b610130600480360381019061012b9190612a1e565b6107cf565b005b61014c60048036038101906101479190612aa9565b610ad4565b005b61016860048036038101906101639190612a1e565b610c14565b60405161017b9796959493929190612b7f565b60405180910390f35b61019e60048036038101906101999190612a1e565b610e83565b005b6101a86111e1565b6040516101b59190612e85565b60405180910390f35b6101d860048036038101906101d39190612a1e565b611567565b6040516101e59190612fc0565b60405180910390f35b6101f661181d565b6040516102039190612ff1565b60405180910390f35b610226600480360381019061022191906131b5565b611841565b005b610242600480360381019061023d91906132ff565b611c3a565b005b61025e6004803603810190610259919061335b565b611f4d565b005b61027a60048036038101906102759190612a1e565b612117565b604051610287919061357f565b60405180910390f35b6102aa60048036038101906102a59190612a1e565b61248e565b6040516102b89291906135a1565b60405180910390f35b6102db60048036038101906102d69190612a1e565b6125ad565b6040516102e891906135d1565b60405180910390f35b6102f96125d1565b60405161030691906135d1565b60405180910390f35b8160026000828152602001908152602001600020600a0160009054906101000a900460ff16610373576040517f08c379a000000000000000000000000000000000000000000000000000000000815260040161036a90613638565b60405180910390fd5b600060026000858152602001908152602001600020905080600101544211156103d1576040517f08c379a00000000000000000000000000000000000000000000000000000000081526004016103c8906136a4565b60405180910390fd5b8060070160003373ffffffffffffffffffffffffffffffffffffffff1673ffffffffffffffffffffffffffffffffffffffff16815260200190815260200160002060009054906101000a900460ff1661045f576040517f08c379a000000000000000000000000000000000000000000000000000000000815260040161045690613736565b60405180910390fd5b8060060160003373ffffffffffffffffffffffffffffffffffffffff1673ffffffffffffffffffffffffffffffffffffffff16815260200190815260200160002060009054906101000a900460ff16156104ee576040517f08c379a00000000000000000000000000000000000000000000000000000000081526004016104e5906137a2565b60405180910390fd5b6105cb8382600201805480602002602001604051908101604052809291908181526020016000905b828210156105c2578382906000526020600020018054610535906137f1565b80601f0160208091040260200160405190810160405280929190818152602001828054610561906137f1565b80156105ae5780601f10610583576101008083540402835291602001916105ae565b820191906000526020600020905b81548152906001019060200180831161059157829003601f168201915b505050505081526020019060010190610516565b505050506125d7565b61060a576040517f08c379a00000000000000000000000000000000000000000000000000000000081526004016106019061386e565b60405180910390fd5b806005018360405161061c91906138ca565b9081526020016040518091039020600081548092919061063b90613910565b919050555060018160060160003373ffffffffffffffffffffffffffffffffffffffff1673ffffffffffffffffffffffffffffffffffffffff16815260200190815260200160002060006101000a81548160ff02191690831515021790555080600c015481600501846040516106b191906138ca565b90815260200160405180910390205411156107065780600501836040516106d891906138ca565b90815260200160405180910390205481600c01819055508281600b0190816107009190613b04565b5061077a565b80600c0154816005018460405161071d91906138ca565b90815260200160405180910390205403610779576040518060400160405280601181526020017f46696e616c20726573756c74206472617700000000000000000000000000000081525081600b0190816107779190613b04565b505b5b3373ffffffffffffffffffffffffffffffffffffffff16847f8a8447f1acf202473924ec6d1e6be50b0c5d271185dfa05565d7390d097f3e8c856040516107c19190613bd6565b60405180910390a350505050565b8060026000828152602001908152602001600020600a0160009054906101000a900460ff16610833576040517f08c379a000000000000000000000000000000000000000000000000000000000815260040161082a90613638565b60405180910390fd5b60006002600084815260200190815260200160002090508060010154421115610891576040517f08c379a0000000000000000000000000000000000000000000000000000000008152600401610888906136a4565b60405180910390fd5b8060060160003373ffffffffffffffffffffffffffffffffffffffff1673ffffffffffffffffffffffffffffffffffffffff16815260200190815260200160002060009054906101000a900460ff1615610920576040517f08c379a000000000000000000000000000000000000000000000000000000000815260040161091790613c44565b60405180910390fd5b8060070160003373ffffffffffffffffffffffffffffffffffffffff1673ffffffffffffffffffffffffffffffffffffffff16815260200190815260200160002060009054906101000a900460ff16156109af576040517f08c379a00000000000000000000000000000000000000000000000000000000081526004016109a690613cb0565b60405180910390fd5b666a94d74f4300003373ffffffffffffffffffffffffffffffffffffffff16311015610a10576040517f08c379a0000000000000000000000000000000000000000000000000000000008152600401610a0790613d1c565b60405180910390fd5b60018160070160003373ffffffffffffffffffffffffffffffffffffffff1673ffffffffffffffffffffffffffffffffffffffff16815260200190815260200160002060006101000a81548160ff02191690831515021790555080600801339080600181540180825580915050600190039060005260206000200160009091909190916101000a81548173ffffffffffffffffffffffffffffffffffffffff021916908373ffffffffffffffffffffffffffffffffffffffff160217905550505050565b60008054906101000a900473ffffffffffffffffffffffffffffffffffffffff1673ffffffffffffffffffffffffffffffffffffffff163373ffffffffffffffffffffffffffffffffffffffff1614610b62576040517f08c379a0000000000000000000000000000000000000000000000000000000008152600401610b5990613dae565b60405180910390fd5b600073ffffffffffffffffffffffffffffffffffffffff168173ffffffffffffffffffffffffffffffffffffffff1603610bd1576040517f08c379a0000000000000000000000000000000000000000000000000000000008152600401610bc890613e1a565b60405180910390fd5b806000806101000a81548173ffffffffffffffffffffffffffffffffffffffff021916908373ffffffffffffffffffffffffffffffffffffffff16021790555050565b6002602052806000526040600020600091509050806000018054610c37906137f1565b80601f0160208091040260200160405190810160405280929190818152602001828054610c63906137f1565b8015610cb05780601f10610c8557610100808354040283529160200191610cb0565b820191906000526020600020905b815481529060010190602001808311610c9357829003601f168201915b505050505090806001015490806004018054610ccb906137f1565b80601f0160208091040260200160405190810160405280929190818152602001828054610cf7906137f1565b8015610d445780601f10610d1957610100808354040283529160200191610d44565b820191906000526020600020905b815481529060010190602001808311610d2757829003601f168201915b505050505090806009018054610d59906137f1565b80601f0160208091040260200160405190810160405280929190818152602001828054610d85906137f1565b8015610dd25780601f10610da757610100808354040283529160200191610dd2565b820191906000526020600020905b815481529060010190602001808311610db557829003601f168201915b50505050509080600a0160009054906101000a900460ff169080600b018054610dfa906137f1565b80601f0160208091040260200160405190810160405280929190818152602001828054610e26906137f1565b8015610e735780601f10610e4857610100808354040283529160200191610e73565b820191906000526020600020905b815481529060010190602001808311610e5657829003601f168201915b50505050509080600c0154905087565b60008054906101000a900473ffffffffffffffffffffffffffffffffffffffff1673ffffffffffffffffffffffffffffffffffffffff163373ffffffffffffffffffffffffffffffffffffffff1614610f11576040517f08c379a0000000000000000000000000000000000000000000000000000000008152600401610f0890613dae565b60405180910390fd5b8060026000828152602001908152602001600020600a0160009054906101000a900460ff16610f75576040517f08c379a0000000000000000000000000000000000000000000000000000000008152600401610f6c90613638565b60405180910390fd5b600060026000848152602001908152602001600020905060005b8160080180549050811015611042576000826008018281548110610fb657610fb5613e3a565b5b9060005260206000200160009054906101000a900473ffffffffffffffffffffffffffffffffffffffff1690508260070160008273ffffffffffffffffffffffffffffffffffffffff1673ffffffffffffffffffffffffffffffffffffffff16815260200190815260200160002060006101000a81549060ff0219169055508080600101915050610f8f565b5060026000848152602001908152602001600020600080820160006110679190612678565b600182016000905560028201600061107f91906126b8565b60038201600061108f91906126b8565b60048201600061109f9190612678565b6008820160006110af91906126d9565b6009820160006110bf9190612678565b600a820160006101000a81549060ff0219169055600b820160006110e39190612678565b600c820160009055505060005b6003805490508110156111ae57836003828154811061111257611111613e3a565b5b9060005260206000200154036111a157600360016003805490506111369190613e69565b8154811061114757611146613e3a565b5b90600052602060002001546003828154811061116657611165613e3a565b5b9060005260206000200181905550600380548061118657611185613e9d565b5b600190038181906000526020600020016000905590556111ae565b80806001019150506110f0565b50827fbb78d5fa658dbdad95908d420646ea8bb64f50a9daa1acaa682effe6703f1ed760405160405180910390a2505050565b6060600060038054905067ffffffffffffffff81111561120457611203612897565b5b60405190808252806020026020018201604052801561123d57816020015b61122a6126fa565b8152602001906001900390816112225790505b50905060005b60038054905081101561155f5760006003828154811061126657611265613e3a565b5b9060005260206000200154905060006002600083815260200190815260200160002090506040518060c001604052808381526020018260000180546112aa906137f1565b80601f01602080910402602001604051908101604052809291908181526020018280546112d6906137f1565b80156113235780601f106112f857610100808354040283529160200191611323565b820191906000526020600020905b81548152906001019060200180831161130657829003601f168201915b5050505050815260200182600401805461133c906137f1565b80601f0160208091040260200160405190810160405280929190818152602001828054611368906137f1565b80156113b55780601f1061138a576101008083540402835291602001916113b5565b820191906000526020600020905b81548152906001019060200180831161139857829003601f168201915b505050505081526020018260090180546113ce906137f1565b80601f01602080910402602001604051908101604052809291908181526020018280546113fa906137f1565b80156114475780601f1061141c57610100808354040283529160200191611447565b820191906000526020600020905b81548152906001019060200180831161142a57829003601f168201915b505050505081526020018260010154815260200182600201805480602002602001604051908101604052809291908181526020016000905b8282101561152b57838290600052602060002001805461149e906137f1565b80601f01602080910402602001604051908101604052809291908181526020018280546114ca906137f1565b80156115175780601f106114ec57610100808354040283529160200191611517565b820191906000526020600020905b8154815290600101906020018083116114fa57829003601f168201915b50505050508152602001906001019061147f565b5050505081525084848151811061154557611544613e3a565b5b602002602001018190525050508080600101915050611243565b508091505090565b60608160026000828152602001908152602001600020600a0160009054906101000a900460ff166115cd576040517f08c379a00000000000000000000000000000000000000000000000000000000081526004016115c490613638565b60405180910390fd5b60006002600085815260200190815260200160002090506000816002018054905067ffffffffffffffff81111561160757611606612897565b5b60405190808252806020026020018201604052801561164057816020015b61162d612730565b8152602001906001900390816116255790505b50905060005b826002018054905081101561181157600083600201828154811061166d5761166c613e3a565b5b906000526020600020018054611682906137f1565b80601f01602080910402602001604051908101604052809291908181526020018280546116ae906137f1565b80156116fb5780601f106116d0576101008083540402835291602001916116fb565b820191906000526020600020905b8154815290600101906020018083116116de57829003601f168201915b505050505090506040518060600160405280828152602001856005018360405161172591906138ca565b908152602001604051809103902054815260200185600301848154811061174f5761174e613e3a565b5b906000526020600020018054611764906137f1565b80601f0160208091040260200160405190810160405280929190818152602001828054611790906137f1565b80156117dd5780601f106117b2576101008083540402835291602001916117dd565b820191906000526020600020905b8154815290600101906020018083116117c057829003601f168201915b50505050508152508383815181106117f8576117f7613e3a565b5b6020026020010181905250508080600101915050611646565b50809350505050919050565b60008054906101000a900473ffffffffffffffffffffffffffffffffffffffff1681565b60008054906101000a900473ffffffffffffffffffffffffffffffffffffffff1673ffffffffffffffffffffffffffffffffffffffff163373ffffffffffffffffffffffffffffffffffffffff16146118cf576040517f08c379a00000000000000000000000000000000000000000000000000000000081526004016118c690613dae565b60405180910390fd5b6000855111611913576040517f08c379a000000000000000000000000000000000000000000000000000000000815260040161190a90613f3e565b60405180910390fd5b8351855114611957576040517f08c379a000000000000000000000000000000000000000000000000000000000815260040161194e90613fd0565b60405180910390fd5b600082511161199b576040517f08c379a000000000000000000000000000000000000000000000000000000000815260040161199290614062565b60405180910390fd5b600160008154809291906119ae90613910565b919050555060006002600060015481526020019081526020016000209050878160000190816119dd9190613b04565b50603c876119eb9190614082565b426119f691906140c4565b8160010181905550600181600a0160006101000a81548160ff02191690831515021790555085816002019080519060200190611a33929190612751565b5084816003019080519060200190611a4c929190612751565b5083816004019081611a5e9190613b04565b5081816009019081611a709190613b04565b506040518060400160405280601181526020017f46696e616c20726573756c74206472617700000000000000000000000000000081525081600b019081611ab79190613b04565b5060005b8351811015611bc4576001826007016000868481518110611adf57611ade613e3a565b5b602002602001015173ffffffffffffffffffffffffffffffffffffffff1673ffffffffffffffffffffffffffffffffffffffff16815260200190815260200160002060006101000a81548160ff02191690831515021790555081600801848281518110611b4f57611b4e613e3a565b5b60200260200101519080600181540180825580915050600190039060005260206000200160009091909190916101000a81548173ffffffffffffffffffffffffffffffffffffffff021916908373ffffffffffffffffffffffffffffffffffffffff1602179055508080600101915050611abb565b50600360015490806001815401808255809150506001900390600052602060002001600090919091909150556001547f43131521170c5b80ffe9526cfec987f5a24eb1f6c4bda47c41a5e4b8388afe5c898360010154604051611c289291906135a1565b60405180910390a25050505050505050565b60008054906101000a900473ffffffffffffffffffffffffffffffffffffffff1673ffffffffffffffffffffffffffffffffffffffff163373ffffffffffffffffffffffffffffffffffffffff1614611cc8576040517f08c379a0000000000000000000000000000000000000000000000000000000008152600401611cbf90613dae565b60405180910390fd5b8160026000828152602001908152602001600020600a0160009054906101000a900460ff16611d2c576040517f08c379a0000000000000000000000000000000000000000000000000000000008152600401611d2390613638565b60405180910390fd5b6000825111611d70576040517f08c379a0000000000000000000000000000000000000000000000000000000008152600401611d6790614062565b60405180910390fd5b600060026000858152602001908152602001600020905060005b8160080180549050811015611e3d576000826008018281548110611db157611db0613e3a565b5b9060005260206000200160009054906101000a900473ffffffffffffffffffffffffffffffffffffffff1690508260070160008273ffffffffffffffffffffffffffffffffffffffff1673ffffffffffffffffffffffffffffffffffffffff16815260200190815260200160002060006101000a81549060ff0219169055508080600101915050611d8a565b50806008016000611e4e91906126d9565b60005b8351811015611f46576000848281518110611e6f57611e6e613e3a565b5b6020026020010151905060018360070160008373ffffffffffffffffffffffffffffffffffffffff1673ffffffffffffffffffffffffffffffffffffffff16815260200190815260200160002060006101000a81548160ff02191690831515021790555082600801819080600181540180825580915050600190039060005260206000200160009091909190916101000a81548173ffffffffffffffffffffffffffffffffffffffff021916908373ffffffffffffffffffffffffffffffffffffffff160217905550508080600101915050611e51565b5050505050565b60008054906101000a900473ffffffffffffffffffffffffffffffffffffffff1673ffffffffffffffffffffffffffffffffffffffff163373ffffffffffffffffffffffffffffffffffffffff1614611fdb576040517f08c379a0000000000000000000000000000000000000000000000000000000008152600401611fd290613dae565b60405180910390fd5b8260026000828152602001908152602001600020600a0160009054906101000a900460ff1661203f576040517f08c379a000000000000000000000000000000000000000000000000000000000815260040161203690613638565b60405180910390fd5b6000835111612083576040517f08c379a000000000000000000000000000000000000000000000000000000000815260040161207a90613f3e565b60405180910390fd5b81518351146120c7576040517f08c379a00000000000000000000000000000000000000000000000000000000081526004016120be90613fd0565b60405180910390fd5b6000600260008681526020019081526020016000209050838160020190805190602001906120f6929190612751565b508281600301908051906020019061210f929190612751565b505050505050565b61211f6127aa565b60006002600084815260200190815260200160002090506000604051806101000160405280836000018054612153906137f1565b80601f016020809104026020016040519081016040528092919081815260200182805461217f906137f1565b80156121cc5780601f106121a1576101008083540402835291602001916121cc565b820191906000526020600020905b8154815290600101906020018083116121af57829003601f168201915b505050505081526020018360090180546121e5906137f1565b80601f0160208091040260200160405190810160405280929190818152602001828054612211906137f1565b801561225e5780601f106122335761010080835404028352916020019161225e565b820191906000526020600020905b81548152906001019060200180831161224157829003601f168201915b50505050508152602001836001015481526020018360060160003373ffffffffffffffffffffffffffffffffffffffff1673ffffffffffffffffffffffffffffffffffffffff16815260200190815260200160002060009054906101000a900460ff161515815260200183600b0180546122d7906137f1565b80601f0160208091040260200160405190810160405280929190818152602001828054612303906137f1565b80156123505780601f1061232557610100808354040283529160200191612350565b820191906000526020600020905b81548152906001019060200180831161233357829003601f168201915b5050505050815260200183600c01548152602001836008018054806020026020016040519081016040528092919081815260200182805480156123e857602002820191906000526020600020905b8160009054906101000a900473ffffffffffffffffffffffffffffffffffffffff1673ffffffffffffffffffffffffffffffffffffffff168152602001906001019080831161239e575b50505050508152602001836004018054612401906137f1565b80601f016020809104026020016040519081016040528092919081815260200182805461242d906137f1565b801561247a5780601f1061244f5761010080835404028352916020019161247a565b820191906000526020600020905b81548152906001019060200180831161245d57829003601f168201915b505050505081525090508092505050919050565b606060008260026000828152602001908152602001600020600a0160009054906101000a900460ff166124f6576040517f08c379a00000000000000000000000000000000000000000000000000000000081526004016124ed90613638565b60405180910390fd5b600060026000868152602001908152602001600020905080600b0181600c0154818054612522906137f1565b80601f016020809104026020016040519081016040528092919081815260200182805461254e906137f1565b801561259b5780601f106125705761010080835404028352916020019161259b565b820191906000526020600020905b81548152906001019060200180831161257e57829003601f168201915b50505050509150935093505050915091565b600381815481106125bd57600080fd5b906000526020600020016000915090505481565b60015481565b600080600090505b825181101561266c57836040516020016125f991906138ca565b6040516020818303038152906040528051906020012083828151811061262257612621613e3a565b5b602002602001015160405160200161263a91906138ca565b604051602081830303815290604052805190602001200361265f576001915050612672565b80806001019150506125df565b50600090505b92915050565b508054612684906137f1565b6000825580601f1061269657506126b5565b601f0160209004906000526020600020908101906126b491906127f1565b5b50565b50805460008255906000526020600020908101906126d6919061280e565b50565b50805460008255906000526020600020908101906126f791906127f1565b50565b6040518060c001604052806000815260200160608152602001606081526020016060815260200160008152602001606081525090565b60405180606001604052806060815260200160008152602001606081525090565b828054828255906000526020600020908101928215612799579160200282015b828111156127985782518290816127889190613b04565b5091602001919060010190612771565b5b5090506127a6919061280e565b5090565b604051806101000160405280606081526020016060815260200160008152602001600015158152602001606081526020016000815260200160608152602001606081525090565b5b8082111561280a5760008160009055506001016127f2565b5090565b5b8082111561282e57600081816128259190612678565b5060010161280f565b5090565b6000604051905090565b600080fd5b600080fd5b6000819050919050565b61285981612846565b811461286457600080fd5b50565b60008135905061287681612850565b92915050565b600080fd5b600080fd5b6000601f19601f8301169050919050565b7f4e487b7100000000000000000000000000000000000000000000000000000000600052604160045260246000fd5b6128cf82612886565b810181811067ffffffffffffffff821117156128ee576128ed612897565b5b80604052505050565b6000612901612832565b905061290d82826128c6565b919050565b600067ffffffffffffffff82111561292d5761292c612897565b5b61293682612886565b9050602081019050919050565b82818337600083830152505050565b600061296561296084612912565b6128f7565b90508281526020810184848401111561298157612980612881565b5b61298c848285612943565b509392505050565b600082601f8301126129a9576129a861287c565b5b81356129b9848260208601612952565b91505092915050565b600080604083850312156129d9576129d861283c565b5b60006129e785828601612867565b925050602083013567ffffffffffffffff811115612a0857612a07612841565b5b612a1485828601612994565b9150509250929050565b600060208284031215612a3457612a3361283c565b5b6000612a4284828501612867565b91505092915050565b600073ffffffffffffffffffffffffffffffffffffffff82169050919050565b6000612a7682612a4b565b9050919050565b612a8681612a6b565b8114612a9157600080fd5b50565b600081359050612aa381612a7d565b92915050565b600060208284031215612abf57612abe61283c565b5b6000612acd84828501612a94565b91505092915050565b600081519050919050565b600082825260208201905092915050565b60005b83811015612b10578082015181840152602081019050612af5565b60008484015250505050565b6000612b2782612ad6565b612b318185612ae1565b9350612b41818560208601612af2565b612b4a81612886565b840191505092915050565b612b5e81612846565b82525050565b60008115159050919050565b612b7981612b64565b82525050565b600060e0820190508181036000830152612b99818a612b1c565b9050612ba86020830189612b55565b8181036040830152612bba8188612b1c565b90508181036060830152612bce8187612b1c565b9050612bdd6080830186612b70565b81810360a0830152612bef8185612b1c565b9050612bfe60c0830184612b55565b98975050505050505050565b600081519050919050565b600082825260208201905092915050565b6000819050602082019050919050565b612c3f81612846565b82525050565b600082825260208201905092915050565b6000612c6182612ad6565b612c6b8185612c45565b9350612c7b818560208601612af2565b612c8481612886565b840191505092915050565b600081519050919050565b600082825260208201905092915050565b6000819050602082019050919050565b6000612cc78383612c56565b905092915050565b6000602082019050919050565b6000612ce782612c8f565b612cf18185612c9a565b935083602082028501612d0385612cab565b8060005b85811015612d3f5784840389528151612d208582612cbb565b9450612d2b83612ccf565b925060208a01995050600181019050612d07565b50829750879550505050505092915050565b600060c083016000830151612d696000860182612c36565b5060208301518482036020860152612d818282612c56565b91505060408301518482036040860152612d9b8282612c56565b91505060608301518482036060860152612db58282612c56565b9150506080830151612dca6080860182612c36565b5060a083015184820360a0860152612de28282612cdc565b9150508091505092915050565b6000612dfb8383612d51565b905092915050565b6000602082019050919050565b6000612e1b82612c0a565b612e258185612c15565b935083602082028501612e3785612c26565b8060005b85811015612e735784840389528151612e548582612def565b9450612e5f83612e03565b925060208a01995050600181019050612e3b565b50829750879550505050505092915050565b60006020820190508181036000830152612e9f8184612e10565b905092915050565b600081519050919050565b600082825260208201905092915050565b6000819050602082019050919050565b60006060830160008301518482036000860152612ef08282612c56565b9150506020830151612f056020860182612c36565b5060408301518482036040860152612f1d8282612c56565b9150508091505092915050565b6000612f368383612ed3565b905092915050565b6000602082019050919050565b6000612f5682612ea7565b612f608185612eb2565b935083602082028501612f7285612ec3565b8060005b85811015612fae5784840389528151612f8f8582612f2a565b9450612f9a83612f3e565b925060208a01995050600181019050612f76565b50829750879550505050505092915050565b60006020820190508181036000830152612fda8184612f4b565b905092915050565b612feb81612a6b565b82525050565b60006020820190506130066000830184612fe2565b92915050565b600067ffffffffffffffff82111561302757613026612897565b5b602082029050602081019050919050565b600080fd5b600061305061304b8461300c565b6128f7565b9050808382526020820190506020840283018581111561307357613072613038565b5b835b818110156130ba57803567ffffffffffffffff8111156130985761309761287c565b5b8086016130a58982612994565b85526020850194505050602081019050613075565b5050509392505050565b600082601f8301126130d9576130d861287c565b5b81356130e984826020860161303d565b91505092915050565b600067ffffffffffffffff82111561310d5761310c612897565b5b602082029050602081019050919050565b600061313161312c846130f2565b6128f7565b9050808382526020820190506020840283018581111561315457613153613038565b5b835b8181101561317d57806131698882612a94565b845260208401935050602081019050613156565b5050509392505050565b600082601f83011261319c5761319b61287c565b5b81356131ac84826020860161311e565b91505092915050565b600080600080600080600060e0888a0312156131d4576131d361283c565b5b600088013567ffffffffffffffff8111156131f2576131f1612841565b5b6131fe8a828b01612994565b975050602061320f8a828b01612867565b965050604088013567ffffffffffffffff8111156132305761322f612841565b5b61323c8a828b016130c4565b955050606088013567ffffffffffffffff81111561325d5761325c612841565b5b6132698a828b016130c4565b945050608088013567ffffffffffffffff81111561328a57613289612841565b5b6132968a828b01612994565b93505060a088013567ffffffffffffffff8111156132b7576132b6612841565b5b6132c38a828b01613187565b92505060c088013567ffffffffffffffff8111156132e4576132e3612841565b5b6132f08a828b01612994565b91505092959891949750929550565b600080604083850312156133165761331561283c565b5b600061332485828601612867565b925050602083013567ffffffffffffffff81111561334557613344612841565b5b61335185828601613187565b9150509250929050565b6000806000606084860312156133745761337361283c565b5b600061338286828701612867565b935050602084013567ffffffffffffffff8111156133a3576133a2612841565b5b6133af868287016130c4565b925050604084013567ffffffffffffffff8111156133d0576133cf612841565b5b6133dc868287016130c4565b9150509250925092565b6133ef81612b64565b82525050565b600081519050919050565b600082825260208201905092915050565b6000819050602082019050919050565b61342a81612a6b565b82525050565b600061343c8383613421565b60208301905092915050565b6000602082019050919050565b6000613460826133f5565b61346a8185613400565b935061347583613411565b8060005b838110156134a657815161348d8882613430565b975061349883613448565b925050600181019050613479565b5085935050505092915050565b60006101008301600083015184820360008601526134d18282612c56565b915050602083015184820360208601526134eb8282612c56565b91505060408301516135006040860182612c36565b50606083015161351360608601826133e6565b506080830151848203608086015261352b8282612c56565b91505060a083015161354060a0860182612c36565b5060c083015184820360c08601526135588282613455565b91505060e083015184820360e08601526135728282612c56565b9150508091505092915050565b6000602082019050818103600083015261359981846134b3565b905092915050565b600060408201905081810360008301526135bb8185612b1c565b90506135ca6020830184612b55565b9392505050565b60006020820190506135e66000830184612b55565b92915050565b7f456c656374696f6e20646f6573206e6f74206578697374000000000000000000600082015250565b6000613622601783612ae1565b915061362d826135ec565b602082019050919050565b6000602082019050818103600083015261365181613615565b9050919050565b7f456c656374696f6e2068617320656e6465640000000000000000000000000000600082015250565b600061368e601283612ae1565b915061369982613658565b602082019050919050565b600060208201905081810360008301526136bd81613681565b9050919050565b7f596f7520617265206e6f7420616c6c6f77656420746f20766f746520696e207460008201527f68697320656c656374696f6e0000000000000000000000000000000000000000602082015250565b6000613720602c83612ae1565b915061372b826136c4565b604082019050919050565b6000602082019050818103600083015261374f81613713565b9050919050565b7f596f75206861766520616c726561647920766f74656400000000000000000000600082015250565b600061378c601683612ae1565b915061379782613756565b602082019050919050565b600060208201905081810360008301526137bb8161377f565b9050919050565b7f4e487b7100000000000000000000000000000000000000000000000000000000600052602260045260246000fd5b6000600282049050600182168061380957607f821691505b60208210810361381c5761381b6137c2565b5b50919050565b7f496e76616c69642063616e646964617465000000000000000000000000000000600082015250565b6000613858601183612ae1565b915061386382613822565b602082019050919050565b600060208201905081810360008301526138878161384b565b9050919050565b600081905092915050565b60006138a482612ad6565b6138ae818561388e565b93506138be818560208601612af2565b80840191505092915050565b60006138d68284613899565b915081905092915050565b7f4e487b7100000000000000000000000000000000000000000000000000000000600052601160045260246000fd5b600061391b82612846565b91507fffffffffffffffffffffffffffffffffffffffffffffffffffffffffffffffff820361394d5761394c6138e1565b5b600182019050919050565b60008190508160005260206000209050919050565b60006020601f8301049050919050565b600082821b905092915050565b6000600883026139ba7fffffffffffffffffffffffffffffffffffffffffffffffffffffffffffffffff8261397d565b6139c4868361397d565b95508019841693508086168417925050509392505050565b6000819050919050565b6000613a016139fc6139f784612846565b6139dc565b612846565b9050919050565b6000819050919050565b613a1b836139e6565b613a2f613a2782613a08565b84845461398a565b825550505050565b600090565b613a44613a37565b613a4f818484613a12565b505050565b5b81811015613a7357613a68600082613a3c565b600181019050613a55565b5050565b601f821115613ab857613a8981613958565b613a928461396d565b81016020851015613aa1578190505b613ab5613aad8561396d565b830182613a54565b50505b505050565b600082821c905092915050565b6000613adb60001984600802613abd565b1980831691505092915050565b6000613af48383613aca565b9150826002028217905092915050565b613b0d82612ad6565b67ffffffffffffffff811115613b2657613b25612897565b5b613b3082546137f1565b613b3b828285613a77565b600060209050601f831160018114613b6e5760008415613b5c578287015190505b613b668582613ae8565b865550613bce565b601f198416613b7c86613958565b60005b82811015613ba457848901518255600182019150602085019450602081019050613b7f565b86831015613bc15784890151613bbd601f891682613aca565b8355505b6001600288020188555050505b505050505050565b60006020820190508181036000830152613bf08184612b1c565b905092915050565b7f566f7465722068617320616c726561647920766f746564000000000000000000600082015250565b6000613c2e601783612ae1565b9150613c3982613bf8565b602082019050919050565b60006020820190508181036000830152613c5d81613c21565b9050919050565b7f566f74657220616c726561647920726567697374657265640000000000000000600082015250565b6000613c9a601883612ae1565b9150613ca582613c64565b602082019050919050565b60006020820190508181036000830152613cc981613c8d565b9050919050565b7f4d696e696d756d20302e30332045544820726571756972656400000000000000600082015250565b6000613d06601983612ae1565b9150613d1182613cd0565b602082019050919050565b60006020820190508181036000830152613d3581613cf9565b9050919050565b7f4f6e6c79206f776e65722063616e20706572666f726d2074686973206163746960008201527f6f6e000000000000000000000000000000000000000000000000000000000000602082015250565b6000613d98602283612ae1565b9150613da382613d3c565b604082019050919050565b60006020820190508181036000830152613dc781613d8b565b9050919050565b7f496e76616c696420616464726573730000000000000000000000000000000000600082015250565b6000613e04600f83612ae1565b9150613e0f82613dce565b602082019050919050565b60006020820190508181036000830152613e3381613df7565b9050919050565b7f4e487b7100000000000000000000000000000000000000000000000000000000600052603260045260246000fd5b6000613e7482612846565b9150613e7f83612846565b9250828203905081811115613e9757613e966138e1565b5b92915050565b7f4e487b7100000000000000000000000000000000000000000000000000000000600052603160045260246000fd5b7f5468657265206d757374206265206174206c65617374206f6e652063616e646960008201527f6461746500000000000000000000000000000000000000000000000000000000602082015250565b6000613f28602483612ae1565b9150613f3382613ecc565b604082019050919050565b60006020820190508181036000830152613f5781613f1b565b9050919050565b7f43616e6469646174657320616e6420696d6167652055524c73206d757374206d60008201527f6174636800000000000000000000000000000000000000000000000000000000602082015250565b6000613fba602483612ae1565b9150613fc582613f5e565b604082019050919050565b60006020820190508181036000830152613fe981613fad565b9050919050565b7f5468657265206d757374206265206174206c65617374206f6e6520616c6c6f7760008201527f656420766f746572000000000000000000000000000000000000000000000000602082015250565b600061404c602883612ae1565b915061405782613ff0565b604082019050919050565b6000602082019050818103600083015261407b8161403f565b9050919050565b600061408d82612846565b915061409883612846565b92508282026140a681612846565b915082820484148315176140bd576140bc6138e1565b5b5092915050565b60006140cf82612846565b91506140da83612846565b92508282019050808211156140f2576140f16138e1565b5b9291505056fea2646970667358221220777918a82053c8e17f41612439cfb00fa2eb266697a8204c33dbc81dc716e1e364736f6c634300081c0033",
  "linkReferences": {},
  "deployedLinkReferences": {}
}